:100000000C949A000C94D6060C94D6060C94D60642
:100010000C94D6060C94D6060C94D6060C94D606F0
:100020000C94D6060C94D6060C94D6060C94D606E0
:100030000C94D6060C94D6060C94D6060C94D606D0
:100040000C94D6060C94C4000C94D6060C94D606D8
:100050000C94D6060C94D6060C94D6060C94D606B0
:100060000C94D6060C94D6061B01BE01BE01BE013F
:10007000BE01BE01BE01BE01BE01BE01BE01BE0188
:10008000BE01BE01BE01BE01260132013E014C018E
:100090005A01BE01BE01BE01BE01BE01BE01BE01CC
:1000A000BE01BE01BE01BE016601BE01720180013A
:1000B0008E019A01BE01BE01A601B201D60128033C
:1000C00028032803280328032803280328032803D8
:1000D000280328032803280328032803E101130227
:1000E00066028102A70228032803280328032803A5
:1000F000280328032803280328032803B60228031B
:10010000C302C302EC02FB02D20228030A03190352
:100110000100010880010806E8000DB006E806EDC0
:100120008006ED06EF00139006EF06F08006F0065D
:10013000F200139211241FBECFEFD8E0DEBFCDBF77
:10014000E0E1F1E041E017C0B591A591359125912D
:10015000059107FD0CC095918591EF01F92FE82FCE
:1001600005900D92A217B307D9F7FE0104C01D92A6
:10017000A217B307E1F7E433F40731F70E945805FB
:080180000C94C200F894FFCFBB
:100188001F920F920FB60F9211242F933F934F9304
:100198005F936F937F938F939F93AF93BF93EF93E7
:1001A800FF930DB407FCFDCF8EB5809300018091BD
:1001B800E8068F3079F1803F09F4E7C081114EC21B
:1001C800809100018F3019F0803F71F01AC0809142
:1001D80000018093E8068AEF809300011092EA06F6
:1001E80081E08093E9063AC2809100018093E80695
:1001F8008BEF809300011092EA0681E08093E90674
:100208002DC21092E8068FEF8093000181E0809361
:10021800E90624C2E091EA068E2F90E08A32910521
:1002280008F0A8C0FC01EC5CFF4F0C94AD0680916F
:1002380000018093EA0680ED8093000181E08093BD
:10024800E9060CC280910701809300011092E8062C
:100258001092EA0681E08093E90600C280910801C5
:10026800809300011092E8061092EA0681E08093DC
:10027800E906F4C18091050190910601809300017F
:100288001092E8061092EA0681E08093E906E6C13A
:100298008091050190910601909300011092E80663
:1002A8001092EA0681E08093E906D8C180910401A2
:1002B800809300011092E8061092EA0681E080938C
:1002C800E906CCC18091ED06809300011092E80602
:1002D8001092EA0681E08093E906C0C1809101018D
:1002E80090910201809300011092E8061092EA06AC
:1002F80081E08093E906B2C18091010190910201E9
:10030800909300011092E8061092EA0681E080932B
:10031800E906A4C18091F106809300011092E806D5
:100328001092EA0681E08093E90698C18091F00670
:10033800809300011092E8061092EA0681E080930B
:10034800E9068CC18091EF06809300011092E806BF
:100358001092EA0681E08093E90680C18091EE065A
:10036800809300011092E8061092EA0681E08093DB
:10037800E90674C18EEF809300011092E80610928E
:10038800EA0681E08093E90669C1E091EA068E2FCA
:1003980090E08A32910508F057C1FC01E25AFF4FFC
:1003A8000C94AD06809100018093EA0680ED80935D
:1003B800000181E08093E90651C1809100018F71AD
:1003C800809307018091070181FF03C00E94C30643
:1003D80002C00E94C7068091070180FF03C081E028
:1003E8008093EB068091070182FF03C00E94BB0641
:1003F80002C00E94BF068091070184FF03C00E94CB
:10040800B30602C00E94B70680ED809300011092E7
:10041800E8061092EA0681E08093E9061FC1809100
:100428000001893041F020F485508230D0F403C0B7
:100438008A3A59F016C0E0910101F09102018091C9
:100448000001E85FFE4F808314C0109202011092F1
:10045800010180ED809300011092E8061092EA06EF
:1004680008C0E0910101F0910201E85FFE4F85E0CC
:10047800808380910101909102010196909302017D
:100488008093010180910101909102018C3D95407A
:1004980061F4109202011092010180ED8093000135
:1004A8001092E8061092EA0609C0E0910101F09165
:1004B8000201E85FFE4F80818093000181E0809314
:1004C800E906CCC010920601109205018091050141
:1004D80090910601882720910001822B90930601B4
:1004E8008093050180ED809300011092E806109238
:1004F800EA0681E08093E906B1C0209105013091B8
:1005080006018091000190E0982F8827822B909314
:1005180006018093050180910501909106018D3DAA
:10052800954030F08CED95E090930601809305019D
:1005380080ED809300011092E8061092EA0681E0AF
:100548008093E9068BC0809100018093040180EDBF
:10055800809300011092E8061092EA0681E08093E9
:10056800E9067CC081E08093EC0690ED9093000151
:100578001092E8061092EA068093E9066FC010927E
:1005880002011092010180ED809300011092E806AB
:100598001092EA0681E08093E90660C00E94A106F5
:1005A800813031F48091070180628093070105C092
:1005B800809107018F7D8093070180ED8093000172
:1005C8001092E8061092EA0681E08093E90646C098
:1005D800809100018093F10680ED809300011092D4
:1005E800E8061092EA0681E08093E90637C0809118
:1005F80000018093F00680ED809300011092E806D8
:100608001092EA0681E08093E90628C080910001F3
:100618008093EF0680ED809300011092E806109217
:10062800EA0681E08093E90619C080910001809371
:10063800EE0680ED809300011092E8061092EA061B
:1006480081E08093E9060AC08DEF80930001109243
:10065800E8061092EA0681E08093E906FF91EF919F
:10066800BF91AF919F918F917F916F915F914F91C2
:0E0678003F912F910F900FBE0F901F9018957D
:10068600CF92DF92EF92FF92CF93DF938091F006A5
:1006960040910501509106018091EF06811166C0D7
:1006A6002091EE0688EE93E0289FE001299FD00D69
:1006B60011246091040170E080E090E00E94A205A0
:1006C60020E030E040EA5FE30E94CF062CEE31E501
:1006D60048E35FE30E9486066B017C01BE01DD0FE5
:1006E600880B990B0E94A205A70196010E94CB06D2
:1006F6000E94DD05A0E020E034C03091F00688B10C
:10070600816088B940E050E017C080910401243030
:1007160008F020E0E22FF0E0EC51F94F90819BB910
:100726002F5F04C084E08A95F1F7892F9FEF980F19
:100736008111F8CF4F5F5F4F4617570730F388B1E7
:100746008E7F88B985E08BB907C0E7EBFBE0319770
:10075600F1F700C00000382F8FEF830F3111F5CF6E
:10076600AF5F8091F106A81740F23AC08091EF067C
:100776008130B1F530C06091F00688B1816088B9EA
:1007860020E030E012C080910401F901E85FFE4FDD
:1007960090819BB904C0F4E0FA95F1F7892F9FEF99
:1007A600980F8111F8CF2F5F3F4F2417350758F365
:1007B60088B18E7F88B985E08BB907C0E7EBFBE08F
:1007C6003197F1F700C00000682F8FEF860F611197
:1007D600F5CF7F5F01C070E08091F106781758F27F
:1007E60085E08BB98091070183FF13C00E94B7068D
:1007F600809107018F7E80930701809107018F7D8D
:10080600809307010E94BB06809107018460809354
:100816000701809107018E7F80930701DF91CF91B9
:0A082600FF90EF90DF90CF9008954F
:1008300010C00E94930658F00E948C0640F029F4E4
:100840005F3F29F00C94A70651110C949B060C9461
:10085000D3060E940C0668F39923B1F3552391F354
:10086000951B550BBB27AA2762177307840738F01F
:100870009F5F5F4F220F331F441FAA1FA9F335D07C
:100880000E2E3AF0E0E832D091505040E695001C30
:10089000CAF72BD0FE2F29D0660F771F881FBB1FEA
:1008A000261737074807AB07B0E809F0BB0B802DC8
:1008B000BF01FF2793585F4F3AF09E3F510578F0F4
:1008C0000C94A7060C949B065F3FE4F3983ED4F388
:1008D000869577956795B795F7959F5FC9F7880FC8
:1008E000911D9695879597F90895E1E0660F771F1A
:1008F000881FBB1F621773078407BA0720F0621BAB
:0E090000730B840BBA0BEE1F88F7E095089579
:10090E000FC00E948C0638F00E94930620F09523AB
:10091E0011F00C94A7060C94D30611240C949B068C
:10092E000E940C0670F3959FC1F3950F50E0551F72
:10093E00629FF001729FBB27F00DB11D639FAA2726
:10094E00F00DB11DAA1F649F6627B00DA11D661F75
:10095E00829F2227B00DA11D621F739FB00DA11D96
:10096E00621F839FA00D611D221F749F3327A00D50
:10097E00611D231F849F600D211D822F762F6A2FEC
:10098E0011249F5750409AF0F1F088234AF0EE0F51
:10099E00FF1FBB1F661F771F881F91505040A9F77E
:1009AE009E3F510580F00C94A7060C949B065F3F6A
:1009BE00E4F3983ED4F3869577956795B795F795BA
:1009CE00E7959F5FC1F7FE2B880F911D9695879532
:0409DE0097F90895E8
:1009E20011C00E948C0638F00E94930620F039F460
:1009F2009F3F19F426F40C94D3060EF4E095E7FB1E
:100A02000C94A706E92F0E940C0658F3BA17620746
:100A120073078407950720F079F4A6F50C949A06DB
:100A22000EF4E0950B2EBA2FA02D0B01B901900107
:100A32000C01CA01A0011124FF27591B99F0593F4B
:100A420050F4503E68F11A16F040A22F232F342F93
:100A52004427585FF3CF469537952795A795F040E1
:100A62005395C9F77EF41F16BA0B620B730B840BF6
:100A7200BAF09150A1F0FF0FBB1F661F771F881FAE
:100A8200C2F70EC0BA0F621F731F841F48F4879506
:100A920077956795B795F7959E3F08F0B0CF9395F8
:0E0AA200880F08F09927EE0F97958795089515
:100AB00087EB9BE00197F1F700C00000F8940E94DB
:100AC0004A060E946306109200011092EA061092F4
:100AD000E8061092E90688E0809307018AE090E03A
:100AE000909306018093050185E1809304011092A3
:100AF0000201109201011092EB0678948091E906B0
:100B00008130E1F78091EB06813021F40E944303AC
:100B10001092EB068091EC06813061F46091050142
:100B20007091060188E091E00E942E068093ED0608
:100B30001092EC06809100018EBD1092E906DECF86
:100B4000E89409C097FB3EF4909580957095619567
:100B50007F4F8F4F9F4F9923A9F0F92F96E9BB271D
:100B60009395F695879577956795B795F111F8CF99
:100B7000FAF4BB0F11F460FF1BC06F5F7F4F8F4F04
:100B80009F4F16C0882311F096E911C0772321F0FA
:100B90009EE8872F762F05C0662371F096E8862F92
:100BA00070E060E02AF09A95660F771F881FDAF7E9
:0A0BB000880F9695879597F9089530
:100BBA000E94140688F09F5798F0B92F9927B751C9
:100BCA00B0F0E1F0660F771F881F991F1AF0BA95E7
:100BDA00C9F714C0B13091F00E949A06B1E00895A5
:100BEA000C949A06672F782F8827B85F39F0B93F97
:100BFA00CCF3869577956795B395D9F73EF490959A
:0E0C0A008095709561957F4F8F4F9F4F089595
:100C180057FD9058440F551F59F05F3F71F04795A5
:100C2800880F97FB991F61F09F3F79F0879508958A
:100C3800121613061406551FF2CF4695F1DF08C0A9
:100C4800161617061806991FF1CF869571056105C6
:040C5800089408955F
:100C5C00DC0140E050E080E013C0FD01E40FF51F23
:100C6C00208190E009C0382F3227869530FF02C0D2
:100C7C003CE8832726959F5F9830A8F34F5F5F4F22
:080C8C004617570750F30895C5
:100C94008FEF8AB985E08BB987E287B988B18E7FF7
:100CA40088B988B18D7F88B988B18B7F88B988B1BC
:100CB400806288B984B18E7F84B984B18D7F84B910
:020CC400089591
:100CC60084B1806184B984B1877F84B984B18B7F14
:100CD60084B984B18F7D84B980EC8CBD8AEA8EBDDF
:020CE60008956F
:100CE800092E0394000C11F4882352F0BB0F40F432
:100CF800BF2B11F460FF04C06F5F7F4F8F4F9F4F72
:020D080008954C
:0E0D0A005058BB27AA270E94F1040C947406CF
:0E0D180000240A9416161706180609060895F8
:0E0D260000240A9412161306140605060895FA
:0E0D3400E894BB2766277727CB0197F908952F
:0C0D420096B1892F847092FD81E0089525
:0C0D4E0097F99F6780E870E060E008956E
:0C0D5A00EE0FFF1F0590F491E02D0994AE
:080D660088B1846088B908958A
:080D6E0088B18B7F88B908955C
:080D760088B18D7F88B9089552
:080D7E0088B1826088B9089574
:080D860088B1806288B908956C
:080D8E0088B18F7D88B908953A
:080D96000E9418040C9474067D
:080D9E000E9487040C94740606
:060DA6009FEF80EC0895B0
:040DAC000C940000A3
:100DB00009050605090506050905000000000000F3
:100DC0000000000000000000000000000000000023
:100DD0000000000000000000000000000000000013
:100DE0000000000000000000000000000000000003
:100DF00000000000000000000000000000000000F3
:04138C000905060544
:01139000ABB1
:011391000A51
:011392000159
:011393000158
:00000001FF
